:0A03F50000010202030304040505E1
:10028E00E4F513F512F511F510C203C200C202C255
:10029E000112059C7E057F008E238F24752B05751C
:1002AE002C1275210575221C752905752A4A752D86
:1002BE0005752E78EE54C0700302038F7514007509
:1002CE0015808E168F17C3749A9FFF74059ECF24C8
:1002DE0002CF3400FEE48F0F8E0EF50DF50CF50BEC
:1002EE00F50AF509F508AF0FAE0EAD0DAC0CAB0B64
:1002FE00AA0AA909A808C31207925033E517250BBD
:10030E00F582E516350AF583E0FFE515250BF58236
:10031E00E514350AF583EFF0E50B2401F50BE43512
:10032E000AF50AE43509F509E43508F50880B785BC
:10033E00142385152474002480FF740534FFFEC336
:10034E00E52C9FF52CE52B9EF52BC3E5269FF52678
:10035E00E5259EF525C3E5289FF528E5279EF5277B
:10036E00C3E5229FF522E5219EF521C3E52A9FF5DF
:10037E002AE5299EF529C3E52E9FF52EE52D9EF53E
:10038E002DD2E843D82090E668E04409F090E65C70
:10039E00E0443DF0D2AF90E680E020E105D20412B9
:1003AE00000390E680E054F7F0538EF8C20312007B
:1003BE0032300105120056C2013003F212005150C4
:1003CE00EDC2031206ED20001690E682E030E7043F
:1003DE00E020E1EF90E682E030E604E020E0E41277
:0703EE0006961204FE80C711
:0B00460090E509E030E402C322D32261
:1000560090E6B9E0700302011514700302019224C0
:10006600FE700302021524FB700302010F147003D5
:100076000201091470030200FD1470030201032437
:1000860005600302027A1207B7400302028690E671
:10009600BBE024FE602714603824FD60111460273D
:1000A60024067050E52390E6B3F0E524803C120068
:1000B60046503EE52B90E6B3F0E52C802DE52590E5
:1000C600E6B3F0E5268023E52790E6B3F0E5288041
:1000D6001990E6BAE0FF1206C2AA06A9077B01EA52
:1000E600494B600DEE90E6B3F0EF90E6B4F00202F5
:1000F600860202750202751207800202861207AB9B
:100106000202861207A302028612076E02028612F6
:1001160007B9400302028690E6B8E0247F60151412
:10012600601924027063A200E43325E0FFA202E412
:10013600334F8041E490E740F0803F90E6BCE054C6
:100146007EFF7E00E0D394807C0040047D01800227
:100156007D00EC4EFEED4F24F5F58274033EF583EB
:10016600E493FF3395E0FEEF24A1FFEE34E68F82A1
:10017600F583E0540190E740F0E4A3F090E68AF0BE
:1001860090E68B7402F00202860202751207BB40EB
:100196000302028690E6B8E024FE6016240260039D
:1001A60002028690E6BAE0B40105C20002028602A7
:1001B600027590E6BAE0705590E6BCE0547EFF7E8C
:1001C60000E0D394807C0040047D0180027D00EC39
:1001D6004EFEED4F24F5F58274033EF583E493FF5E
:1001E6003395E0FEEF24A1FFEE34E68F82F583E03F
:1001F60054FEF090E6BCE05480131313541FFFE046
:10020600540F2F90E683F0E04420F0807380601254
:1002160007BD506C90E6B8E024FE601A2402704FC9
:1002260090E6BAE0B40104D200805590E6BAE0B494
:100236000202804C803990E6BCE0547EFF7E00E0EE
:10024600D394807C0040047D0180027D00EC4EFE4C
:10025600ED4F24F5F58274033EF583E493FF339561
:10026600E0FEEF24A1FFEE34E68F82F583800D9049
:10027600E6A080081207BF500790E6A0E04401F010
:0702860090E6A0E04480F0C7
:01028D00224E
:030033000207B30E
:0407B30053D8EF32F6
:10059C0090E600E054E74410F090E6017443F090CC
:1005AC00E6027408F000000090E60374E0F000002E
:1005BC000090E670E04480F090E6137402F00000C6
:1005CC000090E615F000000090E61274A0F0000018
:1005DC000090E61474E0F000000090E6047480F0E3
:1005EC000000007402F00000007404F000000074BD
:1005FC0006F00000007408F0000000E4F0000000B9
:10060C0090E618F00000007411F000000090E61A5B
:07061C007409F00000002248
:0100320022AB
:02005100D322B8
:0204FE00D32207
:0207B700D3224B
:0807A30090E6BAE0F51BD32239
:10076E0090E740E51BF0E490E68AF090E68B04F00B
:02077E00D32284
:0807AB0090E6BAE0F51AD32232
:1007800090E740E51AF0E490E68AF090E68B04F0FA
:02079000D32272
:0207B900D32249
:0207BB00D32247
:0207BD00D32245
:0207BF00D32243
:10071200C0E0C083C082D2015391EF90E65D7401C4
:08072200F0D082D083D0E03258
:10074200C0E0C083C0825391EF90E65D7404F0D0A4
:0607520082D083D0E032EA
:10075800C0E0C083C0825391EF90E65D7402F0D090
:0607680082D083D0E032D4
:10066000C0E0C083C082852925852A26852682850B
:100670002583A37402F08521278522288528828579
:100680002783A37407F05391EF90E65D7410F0D0C8
:0606900082D083D0E032AD
:10072A00C0E0C083C082D2035391EF90E65D7408A3
:08073A00F0D082D083D0E03240
:10062300C0E0C083C08290E680E030E720852125CA
:10063300852226852682852583A37402F0852927B2
:10064300852A28852882852783A37407F05391EF91
:0D06530090E65D7420F0D082D083D0E032BC
:01004200328B
:0103FF0032CB
:0107C1003205
:0107C2003204
:0107C3003203
:0107C4003202
:0107C5003201
:0107C6003200
:0107C70032FF
:0107C80032FE
:0107C90032FD
:0107CA0032FC
:0107CB0032FB
:0107CC0032FA
:0107CD0032F9
:0107CE0032F8
:0107CF0032F7
:0107D00032F6
:0107D10032F5
:0107D20032F4
:0107D30032F3
:0107D40032F2
:0107D50032F1
:0107D60032F0
:0107D70032EF
:0107D80032EE
:0107D90032ED
:0107DA0032EC
:0107DB0032EB
:0107DC0032EA
:0107DD0032E9
:0107DE0032E8
:0107DF0032E7
:0107E00032E6
:0107E10032E5
:0107E20032E4
:100500001201000200000040B404041000000102C7
:1005100000010A06000200000040010009022E004E
:1005200001010080320904000004FF0000000705FB
:10053000020200020007050402000200070586020D
:100540000002000705880200020009022E000101D6
:100550000080320904000004FF00000007050202C9
:100560004000000705040240000007058602400025
:10057000000705880240000004030904100343003B
:100580007900700072006500730073000E0345006F
:0C0590005A002D005500530042000000EE
:1006960090E682E030E004E020E60B90E682E0306F
:1006A600E119E030E71590E680E04401F07F147E22
:0C06B600001204B890E680E054FEF02230
:1000030030040990E680E0440AF0800790E680E03F
:100013004408F07FDC7E051204B890E65D74FFF0BF
:0F00230090E65FF05391EF90E680E054F7F02203
:0206C200A90786
:1006C400AE2DAF2E8F828E83A3E064037017AD012D
:1006D40019ED7001228F828E83E07C002FFDEC3EA9
:0806E400FEAF0580DFE4FEFF1C
:0106EC0022EB
:1006ED0090E682E044C0F090E681F043870100007F
:0406FD0000000022D7
:1004B8008E188F1990E600E054187012E51924017F
:1004C800FFE43518C313F518EF13F519801590E6F6
:1004D80000E05418FFBF100BE51925E0F519E518E1
:1004E80033F518E5191519AE18700215184E600580
:0604F80012070180EE2254
:100701007400F58690FDA57C05A3E582458370F90B
:0107110022C5
:03004300020400B4
:03005300020400A4
:1004000002071200020758000207420002072A00F2
:100410000206600002062300020042000203FF0001
:100420000207C1000207C2000207C3000207C4009E
:100430000207C5000207C6000207C7000207C8007E
:100440000207C9000203FF000207CA000207CB002F
:100450000207CC000207CD000207CE000207CF0042
:100460000207D0000203FF000203FF000203FF00A7
:100470000207D1000207D2000207D3000207D4000E
:100480000207D5000207D6000207D7000207D800EE
:100490000207D9000207DA000207DB000207DC00CE
:1004A0000207DD000207DE000207DF000207E000AE
:0804B0000207E1000207E2006F
:03000000020036C5
:0C003600787FE4F6D8FD75812E02028E62
:10079200EB9FF5F0EA9E42F0E99D42F0E89C45F0BD
:0107A2002234
:00000001FF
